{
  "contractName": "DipDapDoe",
  "abi": [
    {
      "payable": true,
      "stateMutability": "payable",
      "type": "fallback"
    },
    {
      "anonymous": false,
      "inputs": [
        {
          "indexed": true,
          "name": "gameId",
          "type": "uint32"
        }
      ],
      "name": "gameCreated",
      "type": "event"
    },
    {
      "anonymous": false,
      "inputs": [
        {
          "indexed": true,
          "name": "gameId",
          "type": "uint32"
        }
      ],
      "name": "gameAccepted",
      "type": "event"
    },
    {
      "anonymous": false,
      "inputs": [
        {
          "indexed": true,
          "name": "gameId",
          "type": "uint32"
        }
      ],
      "name": "gameStarted",
      "type": "event"
    },
    {
      "anonymous": false,
      "inputs": [
        {
          "indexed": true,
          "name": "gameId",
          "type": "uint32"
        }
      ],
      "name": "positionMarked",
      "type": "event"
    },
    {
      "anonymous": false,
      "inputs": [
        {
          "indexed": false,
          "name": "gameId",
          "type": "uint32"
        }
      ],
      "name": "gameEnded",
      "type": "event"
    },
    {
      "constant": true,
      "inputs": [],
      "name": "getOpenGames",
      "outputs": [
        {
          "name": "",
          "type": "uint32[]"
        }
      ],
      "payable": false,
      "stateMutability": "view",
      "type": "function"
    },
    {
      "constant": true,
      "inputs": [
        {
          "name": "gameId",
          "type": "uint32"
        }
      ],
      "name": "getGameInfo",
      "outputs": [
        {
          "name": "cells",
          "type": "uint8[9]"
        },
        {
          "name": "status",
          "type": "uint8"
        },
        {
          "name": "amount",
          "type": "uint256"
        },
        {
          "name": "nick1",
          "type": "string"
        },
        {
          "name": "nick2",
          "type": "string"
        }
      ],
      "payable": false,
      "stateMutability": "view",
      "type": "function"
    },
    {
      "constant": false,
      "inputs": [
        {
          "name": "randomNumberHash",
          "type": "string"
        },
        {
          "name": "nick",
          "type": "string"
        }
      ],
      "name": "createGame",
      "outputs": [
        {
          "name": "gameId",
          "type": "uint32"
        }
      ],
      "payable": true,
      "stateMutability": "payable",
      "type": "function"
    },
    {
      "constant": false,
      "inputs": [
        {
          "name": "gameid",
          "type": "uint32"
        },
        {
          "name": "randomNumber",
          "type": "uint8"
        },
        {
          "name": "nick",
          "type": "string"
        }
      ],
      "name": "acceptGame",
      "outputs": [],
      "payable": true,
      "stateMutability": "payable",
      "type": "function"
    },
    {
      "constant": false,
      "inputs": [
        {
          "name": "gameId",
          "type": "uint32"
        },
        {
          "name": "orgRandomNumber",
          "type": "uint8"
        },
        {
          "name": "originalSalt",
          "type": "bytes32"
        }
      ],
      "name": "confirmGame",
      "outputs": [],
      "payable": false,
      "stateMutability": "nonpayable",
      "type": "function"
    },
    {
      "constant": false,
      "inputs": [
        {
          "name": "gameId",
          "type": "uint32"
        },
        {
          "name": "cell",
          "type": "uint8"
        }
      ],
      "name": "markPosition",
      "outputs": [],
      "payable": false,
      "stateMutability": "nonpayable",
      "type": "function"
    },
    {
      "constant": true,
      "inputs": [
        {
          "name": "randomNumber",
          "type": "uint8"
        },
        {
          "name": "salt",
          "type": "string"
        }
      ],
      "name": "saltedHash",
      "outputs": [
        {
          "name": "",
          "type": "bytes32"
        }
      ],
      "payable": false,
      "stateMutability": "pure",
      "type": "function"
    }
  ],
  "bytecode": "0x608060405234801561001057600080fd5b5061055b806100206000396000f300608060405260043610610083576000357c0100000000000000000000000000000000000000000000000000000000900463ffffffff16806352bce296146100885780636474c5b8146100d6578063848a235114610168578063a97d07b0146102c3578063b60d0e9b1461033c578063df472d671461037c578063e75d7e3e1461043e575b600080fd5b34801561009457600080fd5b506100d4600480360381019080803563ffffffff169060200190929190803560ff16906020019092919080356000191690602001909291905050506104aa565b005b3480156100e257600080fd5b5061014a600480360381019080803560ff169060200190929190803590602001908201803590602001908080601f01602080910402602001604051908101604052809392919081815260200183838082843782019150505050505091929192905050506104af565b60405180826000191660001916815260200191505060405180910390f35b34801561017457600080fd5b50610199600480360381019080803563ffffffff1690602001909291905050506104da565b6040518086600960200280838360005b838110156101c45780820151818401526020810190506101a9565b505050509050018560ff1660ff1681526020018481526020018060200180602001838103835285818151815260200191508051906020019080838360005b8381101561021d578082015181840152602081019050610202565b50505050905090810190601f16801561024a5780820380516001836020036101000a031916815260200191505b50838103825284818151815260200191508051906020019080838360005b83811015610283578082015181840152602081019050610268565b50505050905090810190601f1680156102b05780820380516001836020036101000a031916815260200191505b5097505050505050505060405180910390f35b61033a600480360381019080803563ffffffff169060200190929190803560ff169060200190929190803590602001908201803590602001908080601f01602080910402602001604051908101604052809392919081815260200183838082843782019150505050505091929192905050506104f1565b005b34801561034857600080fd5b5061037a600480360381019080803563ffffffff169060200190929190803560ff1690602001909291905050506104f6565b005b61041c600480360381019080803590602001908201803590602001908080601f0160208091040260200160405190810160405280939291908181526020018383808284378201915050505050509192919290803590602001908201803590602001908080601f01602080910402602001604051908101604052809392919081815260200183838082843782019150505050505091929192905050506104fb565b604051808263ffffffff1663ffffffff16815260200191505060405180910390f35b34801561044a57600080fd5b50610453610506565b6040518080602001828103825283818151815260200191508051906020019060200280838360005b8381101561049657808201518184015260208101905061047b565b505050509050019250505060405180910390f35b505050565b60007f2000000000000000000000000000000000000000000000000000000000000000905092915050565b6104e261050b565b60008060608091939590929450565b600080fd5b600080fd5b600080905092915050565b606090565b610120604051908101604052806009906020820280388339808201915050905050905600a165627a7a72305820055f56d03809e5cbaad2947e98e4badd9508bee6f38af8196de875017292c0aa0029",
  "source": "pragma solidity ^0.4.20;\nimport \"./libString.sol\";\n\ncontract DipDapDoe {\n  //events\n  event gameCreated(uint32 indexed gameId);\n  event gameAccepted(uint32 indexed gameId);\n  event gameStarted(uint32 indexed gameId);\n  event positionMarked(uint32 indexed gameId);\n  event gameEnded(uint32 gameId);\n\n  //callable\n  function getOpenGames() public view returns (uint32[]) {\n\n  }\n\n  function getGameInfo(uint32 gameId) public view returns (uint8[9] cells, uint8 status, uint amount, string nick1, string nick2) {\n\n  }\n\n  //operations\n\n  function createGame(string randomNumberHash, string nick) public payable returns (uint32 gameId) {\n    return 0;\n  }\n\n  function acceptGame(uint32 gameid, uint8 randomNumber, string nick) public payable {\n    revert();\n  }\n\n  function confirmGame(uint32 gameId, uint8 orgRandomNumber, bytes32 originalSalt) {\n\n  }\n\n  function markPosition(uint32 gameId, uint8 cell) public {\n    revert();\n  }\n\n  function saltedHash(uint8 randomNumber, string salt) public pure returns (bytes32) {\n    return \" \";\n  }\n\n  //Default\n  function () public payable {\n    revert();\n  }\n\n}\n",
  "sourcePath": "/home/vaibhav/Blockchain/Dip-Dap-Doe/contracts/game.sol",
  "compiler": {
    "name": "solc",
    "version": "0.4.24+commit.e67f0147.Emscripten.clang"
  },
  "schemaVersion": "2.0.1",
  "updatedAt": "2018-12-19T14:37:27.119Z"
}