{
  "contractName": "DipDapDoe",
  "abi": [
    {
      "constant": true,
      "inputs": [],
      "name": "timeout",
      "outputs": [
        {
          "name": "",
          "type": "uint16"
        }
      ],
      "payable": false,
      "stateMutability": "view",
      "type": "function"
    },
    {
      "inputs": [
        {
          "name": "givenTimeout",
          "type": "uint16"
        }
      ],
      "payable": false,
      "stateMutability": "nonpayable",
      "type": "constructor"
    },
    {
      "payable": true,
      "stateMutability": "payable",
      "type": "fallback"
    },
    {
      "anonymous": false,
      "inputs": [
        {
          "indexed": true,
          "name": "gameId",
          "type": "uint32"
        }
      ],
      "name": "gameCreated",
      "type": "event"
    },
    {
      "anonymous": false,
      "inputs": [
        {
          "indexed": true,
          "name": "gameId",
          "type": "uint32"
        },
        {
          "indexed": true,
          "name": "opponent",
          "type": "address"
        }
      ],
      "name": "gameAccepted",
      "type": "event"
    },
    {
      "anonymous": false,
      "inputs": [
        {
          "indexed": true,
          "name": "gameId",
          "type": "uint32"
        },
        {
          "indexed": true,
          "name": "opponent",
          "type": "address"
        }
      ],
      "name": "gameStarted",
      "type": "event"
    },
    {
      "anonymous": false,
      "inputs": [
        {
          "indexed": true,
          "name": "gameId",
          "type": "uint32"
        },
        {
          "indexed": true,
          "name": "opponent",
          "type": "address"
        }
      ],
      "name": "positionMarked",
      "type": "event"
    },
    {
      "anonymous": false,
      "inputs": [
        {
          "indexed": false,
          "name": "gameId",
          "type": "uint32"
        },
        {
          "indexed": true,
          "name": "opponent",
          "type": "address"
        }
      ],
      "name": "gameEnded",
      "type": "event"
    },
    {
      "constant": true,
      "inputs": [],
      "name": "getOpenGames",
      "outputs": [
        {
          "name": "",
          "type": "uint32[]"
        }
      ],
      "payable": false,
      "stateMutability": "view",
      "type": "function"
    },
    {
      "constant": true,
      "inputs": [
        {
          "name": "gameId",
          "type": "uint32"
        }
      ],
      "name": "getGameInfo",
      "outputs": [
        {
          "name": "cells",
          "type": "uint8[9]"
        },
        {
          "name": "status",
          "type": "uint8"
        },
        {
          "name": "amount",
          "type": "uint256"
        },
        {
          "name": "nick1",
          "type": "string"
        },
        {
          "name": "nick2",
          "type": "string"
        }
      ],
      "payable": false,
      "stateMutability": "view",
      "type": "function"
    },
    {
      "constant": true,
      "inputs": [
        {
          "name": "gameId",
          "type": "uint32"
        }
      ],
      "name": "getGameTimeStamp",
      "outputs": [
        {
          "name": "lastTransaction",
          "type": "uint256"
        }
      ],
      "payable": false,
      "stateMutability": "view",
      "type": "function"
    },
    {
      "constant": true,
      "inputs": [
        {
          "name": "gameId",
          "type": "uint32"
        }
      ],
      "name": "getGamePlayers",
      "outputs": [
        {
          "name": "player1",
          "type": "address"
        },
        {
          "name": "player2",
          "type": "address"
        }
      ],
      "payable": false,
      "stateMutability": "view",
      "type": "function"
    },
    {
      "constant": true,
      "inputs": [
        {
          "name": "gameId",
          "type": "uint32"
        }
      ],
      "name": "getGameWithdrawals",
      "outputs": [
        {
          "name": "player1",
          "type": "bool"
        },
        {
          "name": "player2",
          "type": "bool"
        }
      ],
      "payable": false,
      "stateMutability": "view",
      "type": "function"
    },
    {
      "constant": false,
      "inputs": [
        {
          "name": "randomNumberHash",
          "type": "bytes32"
        },
        {
          "name": "nick",
          "type": "string"
        }
      ],
      "name": "createGame",
      "outputs": [
        {
          "name": "gameId",
          "type": "uint32"
        }
      ],
      "payable": true,
      "stateMutability": "payable",
      "type": "function"
    },
    {
      "constant": false,
      "inputs": [
        {
          "name": "gameId",
          "type": "uint32"
        },
        {
          "name": "randomNumber",
          "type": "uint8"
        },
        {
          "name": "nick",
          "type": "string"
        }
      ],
      "name": "acceptGame",
      "outputs": [],
      "payable": true,
      "stateMutability": "payable",
      "type": "function"
    },
    {
      "constant": false,
      "inputs": [
        {
          "name": "gameId",
          "type": "uint32"
        },
        {
          "name": "orgRandomNumber",
          "type": "uint8"
        },
        {
          "name": "originalSalt",
          "type": "string"
        }
      ],
      "name": "confirmGame",
      "outputs": [],
      "payable": false,
      "stateMutability": "nonpayable",
      "type": "function"
    },
    {
      "constant": false,
      "inputs": [
        {
          "name": "gameId",
          "type": "uint32"
        },
        {
          "name": "cell",
          "type": "uint8"
        }
      ],
      "name": "markPosition",
      "outputs": [],
      "payable": false,
      "stateMutability": "nonpayable",
      "type": "function"
    },
    {
      "constant": true,
      "inputs": [
        {
          "name": "randomNumber",
          "type": "uint8"
        },
        {
          "name": "salt",
          "type": "string"
        }
      ],
      "name": "saltedHash",
      "outputs": [
        {
          "name": "",
          "type": "bytes32"
        }
      ],
      "payable": false,
      "stateMutability": "pure",
      "type": "function"
    }
  ],
  "bytecode": "0x608060405234801561001057600080fd5b5060405160208061286a8339810180604052810190808051906020019092919050505060008161ffff161415156100635780600260046101000a81548161ffff021916908361ffff160217905550610083565b610258600260046101000a81548161ffff021916908361ffff1602179055505b506127d7806100936000396000f3006080604052600436106100af576000357c0100000000000000000000000000000000000000000000000000000000900463ffffffff1680630cc99ca2146100b4578063227193051461015a57806343b95d7b146101e45780636474c5b81461026a57806370dea79a146102fc578063848a23511461032f5780638e4cd8541461048a578063a97d07b0146104d1578063b60d0e9b1461054a578063d9a618ae1461058a578063e75d7e3e146105e0575b600080fd5b3480156100c057600080fd5b506100e5600480360381019080803563ffffffff16906020019092919050505061064c565b604051808373ffffffffffffffffffffffffffffffffffffffff1673ffffffffffffffffffffffffffffffffffffffff1681526020018273ffffffffffffffffffffffffffffffffffffffff1673ffffffffffffffffffffffffffffffffffffffff1681526020019250505060405180910390f35b6101c26004803603810190808035600019169060200190929190803590602001908201803590602001908080601f01602080910402602001604051908101604052809392919081815260200183838082843782019150505050505091929192905050506106fc565b604051808263ffffffff1663ffffffff16815260200191505060405180910390f35b3480156101f057600080fd5b50610268600480360381019080803563ffffffff169060200190929190803560ff169060200190929190803590602001908201803590602001908080601f0160208091040260200160405190810160405280939291908181526020018383808284378201915050505050509192919290505050610a1e565b005b34801561027657600080fd5b506102de600480360381019080803560ff169060200190929190803590602001908201803590602001908080601f0160208091040260200160405190810160405280939291908181526020018383808284378201915050505050509192919290505050610f34565b60405180826000191660001916815260200191505060405180910390f35b34801561030857600080fd5b50610311611057565b604051808261ffff1661ffff16815260200191505060405180910390f35b34801561033b57600080fd5b50610360600480360381019080803563ffffffff16906020019092919050505061106b565b6040518086600960200280838360005b8381101561038b578082015181840152602081019050610370565b505050509050018560ff1660ff1681526020018481526020018060200180602001838103835285818151815260200191508051906020019080838360005b838110156103e45780820151818401526020810190506103c9565b50505050905090810190601f1680156104115780820380516001836020036101000a031916815260200191505b50838103825284818151815260200191508051906020019080838360005b8381101561044a57808201518184015260208101905061042f565b50505050905090810190601f1680156104775780820380516001836020036101000a031916815260200191505b5097505050505050505060405180910390f35b34801561049657600080fd5b506104bb600480360381019080803563ffffffff169060200190929190505050611300565b6040518082815260200191505060405180910390f35b610548600480360381019080803563ffffffff169060200190929190803560ff169060200190929190803590602001908201803590602001908080601f016020809104026020016040519081016040528093929190818152602001838380828437820191505050505050919291929050505061132c565b005b34801561055657600080fd5b50610588600480360381019080803563ffffffff169060200190929190803560ff169060200190929190505050611782565b005b34801561059657600080fd5b506105bb600480360381019080803563ffffffff16906020019092919050505061258c565b6040518083151515158152602001821515151581526020019250505060405180910390f35b3480156105ec57600080fd5b506105f5612624565b6040518080602001828103825283818151815260200191508051906020019060200280838360005b8381101561063857808201518184015260208101905061061d565b505050509050019250505060405180910390f35b600080600160008463ffffffff1663ffffffff168152602001908152602001600020600401600060028110151561067f57fe5b0160009054906101000a900473ffffffffffffffffffffffffffffffffffffffff16600160008563ffffffff1663ffffffff16815260200190815260200160002060040160016002811015156106d157fe5b0160009054906101000a900473ffffffffffffffffffffffffffffffffffffffff1691509150915091565b6000600260009054906101000a900463ffffffff1663ffffffff166001600260009054906101000a900463ffffffff160163ffffffff1611151561073f57600080fd5b60008054905060016000600260009054906101000a900463ffffffff1663ffffffff1663ffffffff16815260200190815260200160002060000160006101000a81548163ffffffff021916908363ffffffff1602179055508260016000600260009054906101000a900463ffffffff1663ffffffff1663ffffffff168152602001908152602001600020600a0181600019169055503460016000600260009054906101000a900463ffffffff1663ffffffff1663ffffffff168152602001908152602001600020600301819055508160016000600260009054906101000a900463ffffffff1663ffffffff1663ffffffff168152602001908152602001600020600601600060028110151561085057fe5b0190805190602001906108649291906126a8565b503360016000600260009054906101000a900463ffffffff1663ffffffff1663ffffffff16815260200190815260200160002060040160006002811015156108a857fe5b0160006101000a81548173ffffffffffffffffffffffffffffffffffffffff021916908373ffffffffffffffffffffffffffffffffffffffff1602179055504260016000600260009054906101000a900463ffffffff1663ffffffff1663ffffffff168152602001908152602001600020600801819055506000600260009054906101000a900463ffffffff16908060018154018082558091505090600182039060005260206000209060089182820401919006600402909192909190916101000a81548163ffffffff021916908363ffffffff16021790555050600260009054906101000a900463ffffffff169050600260009054906101000a900463ffffffff1663ffffffff167fb608581fd8c38cced7f73e09e6fad32e5149a9088a38bbe9f36370a403ed57e060405160405180910390a26002600081819054906101000a900463ffffffff168092919060010191906101000a81548163ffffffff021916908363ffffffff1602179055505092915050565b6000600260009054906101000a900463ffffffff1663ffffffff168463ffffffff16101515610a4c57600080fd5b3373ffffffffffffffffffffffffffffffffffffffff16600160008663ffffffff1663ffffffff1681526020019081526020016000206004016000600281101515610a9357fe5b0160009054906101000a900473ffffffffffffffffffffffffffffffffffffffff1673ffffffffffffffffffffffffffffffffffffffff16141515610ad757600080fd5b6000600160008663ffffffff1663ffffffff1681526020019081526020016000206004016001600281101515610b0957fe5b0160009054906101000a900473ffffffffffffffffffffffffffffffffffffffff1673ffffffffffffffffffffffffffffffffffffffff1614151515610b4e57600080fd5b6000600160008663ffffffff1663ffffffff16815260200190815260200160002060020160009054906101000a900460ff1660ff16141515610b8f57600080fd5b610b998383610f34565b9050600160008563ffffffff1663ffffffff168152602001908152602001600020600a0154600019168160001916141515610d1457600c600160008663ffffffff1663ffffffff16815260200190815260200160002060020160006101000a81548160ff021916908360ff1602179055503373ffffffffffffffffffffffffffffffffffffffff167f8c969da8e7005336c0f2cff94cb1eb5dfe8c5cd3b4ec2ec2f294cfeb6c7adf8685604051808263ffffffff1663ffffffff16815260200191505060405180910390a2600160008563ffffffff1663ffffffff1681526020019081526020016000206004016001600281101515610c9457fe5b0160009054906101000a900473ffffffffffffffffffffffffffffffffffffffff1673ffffffffffffffffffffffffffffffffffffffff167f8c969da8e7005336c0f2cff94cb1eb5dfe8c5cd3b4ec2ec2f294cfeb6c7adf8685604051808263ffffffff1663ffffffff16815260200191505060405180910390a2610f2e565b42600160008663ffffffff1663ffffffff16815260200190815260200160002060080181905550600060018060008763ffffffff1663ffffffff168152602001908152602001600020600b0160009054906101000a900460ff1685181660ff161415610e555760018060008663ffffffff1663ffffffff16815260200190815260200160002060020160006101000a81548160ff021916908360ff160217905550600160008563ffffffff1663ffffffff1681526020019081526020016000206004016001600281101515610de557fe5b0160009054906101000a900473ffffffffffffffffffffffffffffffffffffffff1673ffffffffffffffffffffffffffffffffffffffff168463ffffffff167ff59ee4f8b658c6c010ae65895f67eed1357c69e853a58a69498758398bbe06a460405160405180910390a3610f2d565b6002600160008663ffffffff1663ffffffff16815260200190815260200160002060020160006101000a81548160ff021916908360ff160217905550600160008563ffffffff1663ffffffff1681526020019081526020016000206004016001600281101515610ec157fe5b0160009054906101000a900473ffffffffffffffffffffffffffffffffffffffff1673ffffffffffffffffffffffffffffffffffffffff168463ffffffff167ff59ee4f8b658c6c010ae65895f67eed1357c69e853a58a69498758398bbe06a460405160405180910390a35b5b50505050565b600073__libString_____________________________636474c5b884846040518363ffffffff167c0100000000000000000000000000000000000000000000000000000000028152600401808360ff1660ff16815260200180602001828103825283818151815260200191508051906020019080838360005b83811015610fc9578082015181840152602081019050610fae565b50505050905090810190601f168015610ff65780820380516001836020036101000a031916815260200191505b50935050505060206040518083038186803b15801561101457600080fd5b505af4158015611028573d6000803e3d6000fd5b505050506040513d602081101561103e57600080fd5b8101908080519060200190929190505050905092915050565b600260049054906101000a900461ffff1681565b611073612728565b600080606080600160008763ffffffff1663ffffffff168152602001908152602001600020600101600160008863ffffffff1663ffffffff16815260200190815260200160002060020160009054906101000a900460ff16600160008963ffffffff1663ffffffff16815260200190815260200160002060030154600160008a63ffffffff1663ffffffff168152602001908152602001600020600601600060028110151561111e57fe5b01600160008b63ffffffff1663ffffffff168152602001908152602001600020600601600160028110151561114f57fe5b01846009806020026040519081016040528092919082600980156111ae576020028201916000905b82829054906101000a900460ff1660ff16815260200190600101906020826000010492830192600103820291508084116111775790505b50505050509450818054600181600116156101000203166002900480601f01602080910402602001604051908101604052809291908181526020018280546001816001161561010002031660029004801561124a5780601f1061121f5761010080835404028352916020019161124a565b820191906000526020600020905b81548152906001019060200180831161122d57829003601f168201915b50505050509150808054600181600116156101000203166002900480601f0160208091040260200160405190810160405280929190818152602001828054600181600116156101000203166002900480156112e65780601f106112bb576101008083540402835291602001916112e6565b820191906000526020600020905b8154815290600101906020018083116112c957829003601f168201915b505050505090509450945094509450945091939590929450565b6000600160008363ffffffff1663ffffffff168152602001908152602001600020600801549050919050565b6000600260009054906101000a900463ffffffff1663ffffffff168463ffffffff1610151561135a57600080fd5b6000600160008663ffffffff1663ffffffff168152602001908152602001600020600401600060028110151561138c57fe5b0160009054906101000a900473ffffffffffffffffffffffffffffffffffffffff1673ffffffffffffffffffffffffffffffffffffffff16141515156113d157600080fd5b600160008563ffffffff1663ffffffff168152602001908152602001600020600301543414151561140157600080fd5b6000600160008663ffffffff1663ffffffff168152602001908152602001600020600401600160028110151561143357fe5b0160009054906101000a900473ffffffffffffffffffffffffffffffffffffffff1673ffffffffffffffffffffffffffffffffffffffff1614151561147757600080fd5b6000600160008663ffffffff1663ffffffff16815260200190815260200160002060020160009054906101000a900460ff1660ff161415156114b857600080fd5b82600160008663ffffffff1663ffffffff168152602001908152602001600020600b0160006101000a81548160ff021916908360ff16021790555081600160008663ffffffff1663ffffffff168152602001908152602001600020600601600160028110151561152457fe5b0190805190602001906115389291906126a8565b5033600160008663ffffffff1663ffffffff168152602001908152602001600020600401600160028110151561156a57fe5b0160006101000a81548173ffffffffffffffffffffffffffffffffffffffff021916908373ffffffffffffffffffffffffffffffffffffffff16021790555042600160008663ffffffff1663ffffffff16815260200190815260200160002060080181905550600160008563ffffffff1663ffffffff168152602001908152602001600020600401600060028110151561160057fe5b0160009054906101000a900473ffffffffffffffffffffffffffffffffffffffff1673ffffffffffffffffffffffffffffffffffffffff168463ffffffff167fc28df1210942efbee357ee64ca8981f3432ea6ca62b775cd80117586b64ffd3f60405160405180910390a3600160008563ffffffff1663ffffffff16815260200190815260200160002060000160009054906101000a900463ffffffff16905060006001600080549050038154811015156116b757fe5b90600052602060002090600891828204019190066004029054906101000a900463ffffffff1660008263ffffffff168154811015156116f257fe5b90600052602060002090600891828204019190066004026101000a81548163ffffffff021916908363ffffffff16021790555080600160008663ffffffff1663ffffffff16815260200190815260200160002060000160006101000a81548163ffffffff021916908363ffffffff160217905550600080548091906001900361177b919061274c565b5050505050565b6000600260009054906101000a900463ffffffff1663ffffffff168363ffffffff161015156117b057600080fd5b60088260ff16111515156117c357600080fd5b600160008463ffffffff1663ffffffff16815260200190815260200160002060010190506000818360ff166009811015156117fa57fe5b602091828204019190069054906101000a900460ff1660ff1614151561181f57600080fd5b60018060008563ffffffff1663ffffffff16815260200190815260200160002060020160009054906101000a900460ff1660ff1614156119b7573373ffffffffffffffffffffffffffffffffffffffff16600160008563ffffffff1663ffffffff16815260200190815260200160002060040160006002811015156118a057fe5b0160009054906101000a900473ffffffffffffffffffffffffffffffffffffffff1673ffffffffffffffffffffffffffffffffffffffff161415156118e457600080fd5b6001818360ff166009811015156118f757fe5b602091828204019190066101000a81548160ff021916908360ff160217905550600160008463ffffffff1663ffffffff168152602001908152602001600020600401600160028110151561194757fe5b0160009054906101000a900473ffffffffffffffffffffffffffffffffffffffff1673ffffffffffffffffffffffffffffffffffffffff168363ffffffff167f100213dfc431943754f80e1858627e394a3311ad6610d1d998523b04073fe2b160405160405180910390a3611b56565b6002600160008563ffffffff1663ffffffff16815260200190815260200160002060020160009054906101000a900460ff1660ff161415611b50573373ffffffffffffffffffffffffffffffffffffffff16600160008563ffffffff1663ffffffff1681526020019081526020016000206004016001600281101515611a3957fe5b0160009054906101000a900473ffffffffffffffffffffffffffffffffffffffff1673ffffffffffffffffffffffffffffffffffffffff16141515611a7d57600080fd5b6002818360ff16600981101515611a9057fe5b602091828204019190066101000a81548160ff021916908360ff160217905550600160008463ffffffff1663ffffffff1681526020019081526020016000206004016000600281101515611ae057fe5b0160009054906101000a900473ffffffffffffffffffffffffffffffffffffffff1673ffffffffffffffffffffffffffffffffffffffff168363ffffffff167f100213dfc431943754f80e1858627e394a3311ad6610d1d998523b04073fe2b160405160405180910390a3611b55565b600080fd5b5b42600160008563ffffffff1663ffffffff168152602001908152602001600020600801819055506000816002600981101515611b8e57fe5b602091828204019190069054906101000a900460ff16826001600981101515611bb357fe5b602091828204019190069054906101000a900460ff16836000600981101515611bd857fe5b602091828204019190069054906101000a900460ff16161660ff16141580611c7457506000816005600981101515611c0c57fe5b602091828204019190069054906101000a900460ff16826004600981101515611c3157fe5b602091828204019190069054906101000a900460ff16836003600981101515611c5657fe5b602091828204019190069054906101000a900460ff16161660ff1614155b80611cf357506000816008600981101515611c8b57fe5b602091828204019190069054906101000a900460ff16826007600981101515611cb057fe5b602091828204019190069054906101000a900460ff16836006600981101515611cd557fe5b602091828204019190069054906101000a900460ff16161660ff1614155b80611d7257506000816006600981101515611d0a57fe5b602091828204019190069054906101000a900460ff16826003600981101515611d2f57fe5b602091828204019190069054906101000a900460ff16836000600981101515611d5457fe5b602091828204019190069054906101000a900460ff16161660ff1614155b80611df157506000816007600981101515611d8957fe5b602091828204019190069054906101000a900460ff16826004600981101515611dae57fe5b602091828204019190069054906101000a900460ff16836001600981101515611dd357fe5b602091828204019190069054906101000a900460ff16161660ff1614155b80611e7057506000816008600981101515611e0857fe5b602091828204019190069054906101000a900460ff16826005600981101515611e2d57fe5b602091828204019190069054906101000a900460ff16836002600981101515611e5257fe5b602091828204019190069054906101000a900460ff16161660ff1614155b80611eef57506000816008600981101515611e8757fe5b602091828204019190069054906101000a900460ff16826004600981101515611eac57fe5b602091828204019190069054906101000a900460ff16836000600981101515611ed157fe5b602091828204019190069054906101000a900460ff16161660ff1614155b80611f6e57506000816006600981101515611f0657fe5b602091828204019190069054906101000a900460ff16826004600981101515611f2b57fe5b602091828204019190069054906101000a900460ff16836002600981101515611f5057fe5b602091828204019190069054906101000a900460ff16161660ff1614155b1561213257808260ff16600981101515611f8457fe5b602091828204019190069054906101000a900460ff16600a01600160008563ffffffff1663ffffffff16815260200190815260200160002060020160006101000a81548160ff021916908360ff160217905550600160008463ffffffff1663ffffffff168152602001908152602001600020600401600060028110151561200757fe5b0160009054906101000a900473ffffffffffffffffffffffffffffffffffffffff1673ffffffffffffffffffffffffffffffffffffffff167f8c969da8e7005336c0f2cff94cb1eb5dfe8c5cd3b4ec2ec2f294cfeb6c7adf8684604051808263ffffffff1663ffffffff16815260200191505060405180910390a2600160008463ffffffff1663ffffffff16815260200190815260200160002060040160016002811015156120b257fe5b0160009054906101000a900473ffffffffffffffffffffffffffffffffffffffff1673ffffffffffffffffffffffffffffffffffffffff167f8c969da8e7005336c0f2cff94cb1eb5dfe8c5cd3b4ec2ec2f294cfeb6c7adf8684604051808263ffffffff1663ffffffff16815260200191505060405180910390a2612587565b600081600060098110151561214357fe5b602091828204019190069054906101000a900460ff1660ff16141580156121925750600081600160098110151561217657fe5b602091828204019190069054906101000a900460ff1660ff1614155b80156121c6575060008160026009811015156121aa57fe5b602091828204019190069054906101000a900460ff1660ff1614155b80156121fa575060008160036009811015156121de57fe5b602091828204019190069054906101000a900460ff1660ff1614155b801561222e5750600081600460098110151561221257fe5b602091828204019190069054906101000a900460ff1660ff1614155b80156122625750600081600560098110151561224657fe5b602091828204019190069054906101000a900460ff1660ff1614155b80156122965750600081600660098110151561227a57fe5b602091828204019190069054906101000a900460ff1660ff1614155b80156122ca575060008160076009811015156122ae57fe5b602091828204019190069054906101000a900460ff1660ff1614155b80156122fe575060008160086009811015156122e257fe5b602091828204019190069054906101000a900460ff1660ff1614155b1561249a57600a600160008563ffffffff1663ffffffff16815260200190815260200160002060020160006101000a81548160ff021916908360ff160217905550600160008463ffffffff1663ffffffff168152602001908152602001600020600401600060028110151561236f57fe5b0160009054906101000a900473ffffffffffffffffffffffffffffffffffffffff1673ffffffffffffffffffffffffffffffffffffffff167f8c969da8e7005336c0f2cff94cb1eb5dfe8c5cd3b4ec2ec2f294cfeb6c7adf8684604051808263ffffffff1663ffffffff16815260200191505060405180910390a2600160008463ffffffff1663ffffffff168152602001908152602001600020600401600160028110151561241a57fe5b0160009054906101000a900473ffffffffffffffffffffffffffffffffffffffff1673ffffffffffffffffffffffffffffffffffffffff167f8c969da8e7005336c0f2cff94cb1eb5dfe8c5cd3b4ec2ec2f294cfeb6c7adf8684604051808263ffffffff1663ffffffff16815260200191505060405180910390a2612586565b6001818360ff166009811015156124ad57fe5b602091828204019190069054906101000a900460ff1660ff16141561250d576002600160008563ffffffff1663ffffffff16815260200190815260200160002060020160006101000a81548160ff021916908360ff160217905550612585565b6002818360ff1660098110151561252057fe5b602091828204019190069054906101000a900460ff1660ff16141561257f5760018060008563ffffffff1663ffffffff16815260200190815260200160002060020160006101000a81548160ff021916908360ff160217905550612584565b600080fd5b5b5b5b505050565b600080600160008463ffffffff1663ffffffff16815260200190815260200160002060090160006002811015156125bf57fe5b602091828204019190069054906101000a900460ff16600160008563ffffffff1663ffffffff168152602001908152602001600020600901600160028110151561260557fe5b602091828204019190069054906101000a900460ff1691509150915091565b6060600080548060200260200160405190810160405280929190818152602001828054801561269e57602002820191906000526020600020906000905b82829054906101000a900463ffffffff1663ffffffff16815260200190600401906020826003010492830192600103820291508084116126615790505b5050505050905090565b828054600181600116156101000203166002900490600052602060002090601f016020900481019282601f106126e957805160ff1916838001178555612717565b82800160010185558215612717579182015b828111156127165782518255916020019190600101906126fb565b5b5090506127249190612786565b5090565b61012060405190810160405280600990602082028038833980820191505090505090565b8154818355818111156127815760070160089004816007016008900483600052602060002091820191016127809190612786565b5b505050565b6127a891905b808211156127a457600081600090555060010161278c565b5090565b905600a165627a7a723058202443e8cdf4f2275e5ab08cbd1730ee05707ecd8ca00a1f7da5d29e0b8bb6bb9c0029",
  "source": "pragma solidity ^0.4.20;\nimport \"./libString.sol\";\n\ncontract DipDapDoe {\n\n//dataModel\nstruct Game {\n  //this game`s position in getOpenGames[]\n  uint32 openListIndex;\n\n  uint8[9] cells;\n //0 => not started, 1 => player1 , 2 => player2 ,\n //10 => draw, 11 => player1 wins, 12 => player2 wins\n  uint8 status;\n\n  //amount of money each user has sent\n  uint amount;\n\n  address[2] players;\n  string[2] nicks;\n  uint lastTransaction; //timestamp => blocknumber\n  bool[2] withdrawn;\n\n  bytes32 creatorHash;\n  uint8 guestRandomNumber;\n\n}\n\n//list of active game indices\nuint32[] openGames;\n\n//indexed struct\nmapping (uint32 => Game) gamesData;\nuint32 nextGameId;\nuint16 public timeout;\n\n\n\n  //events\n  event gameCreated(uint32 indexed gameId);\n  event gameAccepted(uint32 indexed gameId, address indexed opponent);\n  event gameStarted(uint32 indexed gameId, address indexed opponent);\n  event positionMarked(uint32 indexed gameId, address indexed opponent);\n  event gameEnded(uint32 gameId, address indexed opponent);\n\n  constructor(uint16 givenTimeout) public {\n    if(givenTimeout != 0){\n      timeout = givenTimeout;\n    }else{\n      timeout = 10 minutes;\n    }\n  }\n\n  //callable\n  function getOpenGames() public view returns (uint32[]) {\n       return openGames;\n  }\n\n  function getGameInfo(uint32 gameId) public view returns (uint8[9] cells, uint8 status, uint amount, string nick1, string nick2) {\n       return (\n         gamesData[gameId].cells,\n         gamesData[gameId].status,\n         gamesData[gameId].amount,\n         gamesData[gameId].nicks[0],\n         gamesData[gameId].nicks[1]\n         );\n  }\n\n  function getGameTimeStamp(uint32 gameId) public view returns(uint256 lastTransaction){\n    return (gamesData[gameId].lastTransaction);\n  }\n\n  function getGamePlayers(uint32 gameId) public view\n  returns (address player1, address player2) {\n    return (\n      gamesData[gameId].players[0],\n      gamesData[gameId].players[1]\n      );\n  }\n\n  function getGameWithdrawals(uint32 gameId) public view\n  returns (bool player1, bool player2) {\n    return (\n      gamesData[gameId].withdrawn[0],\n      gamesData[gameId].withdrawn[1]\n      );\n  }\n\n  //operations\n\n  function createGame(bytes32 randomNumberHash, string nick) public payable returns (uint32 gameId) {\n   require(nextGameId+1 > nextGameId);\n\n   gamesData[nextGameId].openListIndex = uint32(openGames.length);\n   gamesData[nextGameId].creatorHash = randomNumberHash;\n   gamesData[nextGameId].amount = msg.value;\n   gamesData[nextGameId].nicks[0] = nick;\n   gamesData[nextGameId].players[0] = msg.sender;\n   gamesData[nextGameId].lastTransaction = now;\n   openGames.push(nextGameId);\n\n   gameId = nextGameId;\n   emit gameCreated(nextGameId);\n\n    nextGameId++;\n  }\n\n  function acceptGame(uint32 gameId, uint8 randomNumber, string nick) public payable {\n    require(gameId < nextGameId);\n    require(gamesData[gameId].players[0] != 0x0);\n    require(msg.value == gamesData[gameId].amount);\n    require(gamesData[gameId].players[1] == 0x0);\n    require(gamesData[gameId].status == 0);\n\n    gamesData[gameId].guestRandomNumber = randomNumber;\n    gamesData[gameId].nicks[1] = nick;\n    gamesData[gameId].players[1] = msg.sender;\n    gamesData[gameId].lastTransaction = now;\n\n    emit gameAccepted(gameId, gamesData[gameId].players[0]);\n\n    //remove from open list\n     uint32 idToDelete = uint32(gamesData[gameId].openListIndex);\n     openGames[idToDelete] = openGames[openGames.length-1];\n     gamesData[gameId].openListIndex = idToDelete;\n     openGames.length--;\n  }\n\n  function confirmGame(uint32 gameId, uint8 orgRandomNumber, string originalSalt) {\n     require(gameId < nextGameId);\n     require(gamesData[gameId].players[0] == msg.sender);\n     require(gamesData[gameId].players[1] != 0x0);\n     require(gamesData[gameId].status == 0);\n\n     bytes32 computedHash = saltedHash(orgRandomNumber, originalSalt);\n     if(computedHash != gamesData[gameId].creatorHash){\n       gamesData[gameId].status = 12;\n       emit gameEnded(gameId, msg.sender);\n       emit gameEnded(gameId, gamesData[gameId].players[1]);\n       return;\n     }\n\n     gamesData[gameId].lastTransaction = now;\n     //defining the starting player\n     if((orgRandomNumber ^ gamesData[gameId].guestRandomNumber) & 0x01 == 0){\n       gamesData[gameId].status = 1;\n       emit gameStarted(gameId, gamesData[gameId].players[1]);\n     }else {\n       gamesData[gameId].status = 2;\n       emit gameStarted(gameId, gamesData[gameId].players[1]);\n     }\n\n  }\n\n  function markPosition(uint32 gameId, uint8 cell) public {\n    require(gameId < nextGameId);\n    require(cell <= 8);\n\n    uint8 [9]storage cells = gamesData[gameId].cells;\n    require(cells[cell] == 0);\n\n    if(gamesData[gameId].status == 1) {\n      require(gamesData[gameId].players[0] == msg.sender);\n\n      cells[cell] = 1;\n      emit positionMarked(gameId, gamesData[gameId].players[1]);\n    }else if(gamesData[gameId].status == 2){\n      require(gamesData[gameId].players[1] == msg.sender);\n      cells[cell] = 2;\n      emit positionMarked(gameId, gamesData[gameId].players[0]);\n    }else {\n      revert();\n    }\n\n    gamesData[gameId].lastTransaction = now;\n\n\n        if((cells[0] & cells [1] & cells [2] != 0x0) || (cells[3] & cells [4] & cells [5] != 0x0) ||\n        (cells[6] & cells [7] & cells [8] != 0x0) || (cells[0] & cells [3] & cells [6] != 0x0) ||\n        (cells[1] & cells [4] & cells [7] != 0x0) || (cells[2] & cells [5] & cells [8] != 0x0) ||\n        (cells[0] & cells [4] & cells [8] != 0x0) || (cells[2] & cells [4] & cells [6] != 0x0)) {\n            // winner\n            gamesData[gameId].status = 10 + cells[cell];  // 11 or 12\n            emit gameEnded(gameId, gamesData[gameId].players[0]);\n            emit gameEnded(gameId, gamesData[gameId].players[1]);\n        }\n        else if(cells[0] != 0x0 && cells[1] != 0x0 && cells[2] != 0x0 &&\n            cells[3] != 0x0 && cells[4] != 0x0 && cells[5] != 0x0 && cells[6] != 0x0 &&\n            cells[7] != 0x0 && cells[8] != 0x0) {\n            // draw\n            gamesData[gameId].status = 10;\n            emit gameEnded(gameId, gamesData[gameId].players[0]);\n            emit gameEnded(gameId, gamesData[gameId].players[1]);\n        }\n        else {\n            if(cells[cell] == 1){\n                gamesData[gameId].status = 2;\n            }\n            else if(cells[cell] == 2){\n                gamesData[gameId].status = 1;\n            }\n            else {\n                revert();\n            }\n       }\n  }\n\n  function saltedHash(uint8 randomNumber, string salt) public pure returns (bytes32) {\n    return libString.saltedHash(randomNumber, salt);\n  }\n\n  //Default\n  function () public payable {\n    revert();\n  }\n\n}\n",
  "sourcePath": "/home/vaibhav/Blockchain/Dip-Dap-Doe/contracts/game.sol",
  "compiler": {
    "name": "solc",
    "version": "0.4.24+commit.e67f0147.Emscripten.clang"
  },
  "schemaVersion": "2.0.1",
  "updatedAt": "2018-12-20T06:57:14.441Z"
}