{
  "contractName": "libString",
  "abi": [
    {
      "constant": true,
      "inputs": [
        {
          "name": "randomNumber",
          "type": "uint8"
        },
        {
          "name": "salt",
          "type": "string"
        }
      ],
      "name": "saltedHash",
      "outputs": [
        {
          "name": "",
          "type": "bytes32"
        }
      ],
      "payable": false,
      "stateMutability": "pure",
      "type": "function"
    }
  ],
  "bytecode": "0x6103f5610030600b82828239805160001a6073146000811461002057610022565bfe5b5030600052607381538281f3007300000000000000000000000000000000000000003014608060405260043610610058576000357c0100000000000000000000000000000000000000000000000000000000900463ffffffff1680636474c5b81461005d575b600080fd5b6100c4600480360381019080803560ff169060200190929190803590602001908201803590602001908080601f01602080910402602001604051908101604052809392919081815260200183838082843782019150505050505091929192905050506100e2565b60405180826000191660001916815260200191505060405180910390f35b6000606060016040519080825280601f01601f19166020018201604052801561011a5781602001602082028038833980820191505090505b509050837f01000000000000000000000000000000000000000000000000000000000000000281600081518110151561014f57fe5b9060200101907effffffffffffffffffffffffffffffffffffffffffffffffffffffffffffff1916908160001a90535061018981846101f4565b6040518082805190602001908083835b6020831015156101be5780518252602082019150602081019050602083039250610199565b6001836020036101000a038019825116818451168082178552505050505050905001915050604051809103902091505092915050565b606080606080606060008088955087945084518651016040519080825280601f01601f19166020018201604052801561023c5781602001602082028038833980820191505090505b50935083925060009150600090505b855181101561030057858181518110151561026257fe5b9060200101517f010000000000000000000000000000000000000000000000000000000000000090047f01000000000000000000000000000000000000000000000000000000000000000283838151811015156102bb57fe5b9060200101907effffffffffffffffffffffffffffffffffffffffffffffffffffffffffffff1916908160001a9053508180600101925050808060010191505061024b565b600090505b84518110156103ba57848181518110151561031c57fe5b9060200101517f010000000000000000000000000000000000000000000000000000000000000090047f010000000000000000000000000000000000000000000000000000000000000002838381518110151561037557fe5b9060200101907effffffffffffffffffffffffffffffffffffffffffffffffffffffffffffff1916908160001a90535081806001019250508080600101915050610305565b829650505050505050929150505600a165627a7a7230582015a4386adc1ccc643615fedc3de22607b58767562f3dc8964dacc5f5c45fe7b00029",
  "source": "// contracts/LibString.sol\npragma solidity ^0.4.24;\n\nlibrary libString {\n    function saltedHash(uint8 randomNumber, string salt) public pure returns (bytes32) {\n        bytes memory bNum = new bytes(1);\n        bNum[0] = byte(randomNumber);\n\n        return keccak256(bytes(concat(string(bNum), salt)));\n    }\n\n    function concat(string first, string second) internal pure returns (string){\n        bytes memory bFirst = bytes(first);\n        bytes memory bSecond = bytes(second);\n        string memory memStr = new string(bFirst.length + bSecond.length);\n        bytes memory result = bytes(memStr);\n        uint k = 0;\n        for (uint i = 0; i < bFirst.length; i++) {\n            result[k] = bFirst[i];\n            k++;\n        }\n        for (i = 0; i < bSecond.length; i++) {\n            result[k] = bSecond[i];\n            k++;\n        }\n        return string(result);\n    }\n}\n",
  "sourcePath": "/home/vaibhav/Blockchain/Dip-Dap-Doe/contracts/libString.sol",
  "compiler": {
    "name": "solc",
    "version": "0.4.24+commit.e67f0147.Emscripten.clang"
  },
  "schemaVersion": "2.0.1",
  "updatedAt": "2018-12-19T14:37:27.120Z"
}